:020000040000FA
:100000000C945D000C9485000C9485000C94850084
:100010000C9485000C9485000C9485000C9485004C
:100020000C9485000C9485000C9485000C94C603F8
:100030000C9485000C9485000C9485000C9485002C
:100040000C9424030C9485000C9494030C946E037C
:100050000C9485000C9485000C9485000C9485000C
:100060000C9485000C94850000000008000201003B
:100070000003040700000000000000000000000072
:10008000250028002B0000000000240027002A0083
:10009000040404040404040402020202020203032E
:1000A0000303030301020408102040800102040836
:1000B00010200102040810209D0411241FBECFEF60
:1000C000D8E0DEBFCDBF11E0A0E0B1E0E6EDFCE09E
:1000D00002C005900D92A831B107D9F721E0A8E13F
:1000E000B1E001C01D92A53FB207E1F710E0CDE5F8
:1000F000D0E004C02197FE010E946306CC35D107F1
:10010000C9F70E94DD040C9469060C94000090E08D
:10011000FC01EC55FF4F249180579F4FFC018491C7
:10012000882399F090E0880F991FFC01EA57FF4F50
:10013000A591B491FC01E458FF4F859194918FB73C
:10014000F894EC91E22BEC938FBF089590E0FC01C2
:10015000E859FF4F2491FC01EC55FF4F3491FC010D
:10016000E057FF4FE491EE23C9F0222339F023300A
:1001700001F1A8F4213019F1223029F1F0E0EE0F5D
:10018000FF1FE458FF4FA591B4918FB7F894EC91FD
:10019000611126C030953E233C938FBF08952730D0
:1001A000A9F02830C9F0243049F7809180008F7D74
:1001B00003C0809180008F7780938000DFCF84B56B
:1001C0008F7784BDDBCF84B58F7DFBCF8091B0006E
:1001D0008F778093B000D2CF8091B0008F7DF9CF20
:1001E0003E2BDACFAF92BF92CF92DF92EF92FF9287
:1001F0000F931F93CF93DF936C017B018B01040F4F
:10020000151FEB015E01AE18BF08C017D10759F0EA
:100210006991D601ED91FC910190F081E02DC6012C
:100220000995892B79F7C501DF91CF911F910F9126
:10023000FF90EF90DF90CF90BF90AF900895FC01BA
:10024000538D448D252F30E0842F90E0821B930B3B
:10025000541710F0CF96089501970895FC01918DE1
:10026000828D981761F0A28DAE0FBF2FB11D5D96E4
:100270008C91928D9F5F9F73928F90E008958FEF86
:100280009FEF0895FC01918D828D981731F0828D3A
:10029000E80FF11D858D90E008958FEF9FEF089591
:1002A000FC01918D228D892F90E0805C9F4F821BF5
:1002B00091098F739927089589E491E00E94500174
:1002C00021E0892B09F420E0822F089580E090E05E
:1002D000892B29F00E945C0181110C940000089583
:1002E000FC01A48DA80FB92FB11DA35ABF4F2C91AB
:1002F000848D90E001968F739927848FA689B789A2
:100300002C93A089B1898C91837080648C93938D98
:10031000848D981306C00288F389E02D80818F7D3B
:1003200080830895EF92FF920F931F93CF93DF93F3
:10033000EC0181E0888F9B8D8C8D98131AC0E88921
:10034000F989808185FF15C09FB7F894EE89FF89F0
:100350006083E889F98980818370806480839FBF8E
:1003600081E090E0DF91CF911F910F91FF90EF908E
:100370000895F62E0B8D10E00F5F1F4F0F7311279E
:10038000E02E8C8D8E110CC00FB607FCFACFE889D9
:10039000F989808185FFF5CFCE010E947001F1CFF0
:1003A000EB8DEC0FFD2FF11DE35AFF4FF0829FB74D
:1003B000F8940B8FEA89FB8980818062CFCFCF933D
:1003C000DF93EC01888D8823B9F0AA89BB89E8897D
:1003D000F9898C9185FD03C0808186FD0DC00FB623
:1003E00007FCF7CF8C9185FFF2CF808185FFEDCFA1
:1003F000CE010E947001E9CFDF91CF910895CF9295
:10040000DF92EF92FF92CF93DF93EC01603282E0B4
:100410007807CCF5653B710514F064EB70E08981D9
:1004200028E830E0281B310987FD3395220F331F60
:10043000220F331F6901330FEE08FF088A8128E578
:1004400032E0281B310987FD3395220F331F220F1D
:10045000331F032E000C440B550B2C193D094E097C
:100460005F09DB0177FF02C0B0E0A0E00E941E063A
:1004700024EB30E040E050E00E94F405C20ED31EB1
:10048000E41EF51EB601E881EC3070F5298188E89C
:1004900090E0821B910927FD9395880F991F880F83
:1004A000991F681779077CF02A8188E592E0821B02
:1004B000910927FD9395880F991F880F991F681739
:1004C00079070CF4CB010297880F991F4FB7F89466
:1004D0002E2F30E0F901EE0FFF1FE20FF31FE65E53
:1004E000FE4F928381834FBFDF91CF91FF90EF90BA
:1004F000DF90CF9008951F93CF93DF93EC01162FD9
:1005000088818C3008F04DC0862F0E94870088813A
:10051000282F30E0F901EE0FFF1FE20FF31FE65E18
:10052000FE4F1F736081607C612B608319821A8289
:100530002CE0622F0E945706829FB001112430E008
:1005400020E0AB01420F531FFA01EE0FFF1FE40F33
:10055000F51FE65EFE4F908196FD16C02F5F3F4F60
:100560002C30310571F781110FC01092800082E0AC
:10057000809381001092850010928400B19A80913E
:100580006F00826080936F00E8818E2F90E0FC0105
:10059000EE0FFF1FE80FF91FE65EFE4F80818064BB
:1005A00080838881DF91CF911F9108958F929F92D0
:1005B000AF92BF920F931F93CF93DF93CDB7DEB768
:1005C000A1970FB6F894DEBF0FBECDBF19A242307F
:1005D00008F44AE08E010F5D1F4F842E912CB12C40
:1005E000A12CA50194010E942606E62FB901CA019B
:1005F000EA3044F5E05DD801EE938D01232B242BE6
:10060000252B79F790E080E0109769F0FD010190CB
:100610000020E9F73197AF014A1B5B0BBD0189E46C
:1006200091E00E94F200A1960FB6F894DEBF0FBED3
:10063000CDBFDF91CF911F910F91BF90AF909F9051
:100640008F900895E95CD7CF1F920F920FB60F924B
:1006500011242F933F938F939F93AF93BF938091D8
:10066000450190914601A0914701B0914801309118
:10067000440123E0230F2D3758F50196A11DB11D2C
:10068000209344018093450190934601A093470134
:10069000B09348018091400190914101A0914201A5
:1006A000B09143010196A11DB11D8093400190932B
:1006B0004101A0934201B0934301BF91AF919F913B
:1006C0008F913F912F910F900FBE0F901F90189513
:1006D00026E8230F0296A11DB11DD2CF1F920F92C3
:1006E0000FB60F9211242F933F934F935F936F9305
:1006F0007F938F939F93AF93BF93EF93FF9389E47F
:1007000091E00E947001FF91EF91BF91AF919F9195
:100710008F917F916F915F914F913F912F910F90AA
:100720000FBE0F901F9018951F920F920FB60F9249
:1007300011242F938F939F93EF93FF93E09159018F
:10074000F0915A018081E0915F01F091600182FD9A
:100750001BC09081809162018F5F8F732091630134
:10076000821741F0E0916201F0E0E75BFE4F958F68
:1007700080936201FF91EF919F918F912F910F9044
:100780000FBE0F901F9018958081F4CF1F920F928B
:100790000FB60F9211242F933F934F935F936F9354
:1007A0007F938F939F93AF93BF93CF93DF93EF93F9
:1007B000FF9380911801C0911901D0E087FF24C0F8
:1007C0001092850010928400809118018F5F8093B1
:1007D000180180911801082E000C990B8C179D07A9
:1007E00024F4809118018C30C4F1809184009091A0
:1007F0008500049680349C4908F47AC08091840076
:1008000090918500049676C080911801082E000C06
:10081000990B8C179D07C4F6E09118018E2FEE0FEF
:10082000990BFC01EE0FFF1FE80FF91FE65EFE4F6C
:10083000808186FFC9CFE09118018E2FEE0F990BB2
:10084000FC01EE0FFF1FE80FF91FE65EFE4F8081EF
:1008500060E08F730E94A600B7CF20918400309192
:100860008500E09118018E2FEE0F990BFC01EE0F21
:10087000FF1FE80FF91FE65EFE4F81819281820F14
:10088000931F9093890080938800E09118018E2F28
:10089000EE0F990BFC01EE0FFF1FE80FF91FE65E4C
:1008A000FE4F808186FF11C0E09118018E2FEE0F60
:1008B000990BFC01EE0FFF1FE80FF91FE65EFE4FDC
:1008C000808161E08F730E94A600FF91EF91DF911C
:1008D000CF91BF91AF919F918F917F916F915F91D8
:1008E0004F913F912F910F900FBE0F901F90189531
:1008F00080E49CE990938900809388008FEF809337
:100900001801E3CFFC01909119019C3098F481E02B
:10091000890F809319019083892F90E0FC01EE0FDD
:10092000FF1FE80FF91FE65EFE4F88EB9BE0928306
:10093000818308958FEF80830895E9E4F1E01382C5
:10094000128288EE93E0A0E0B0E084839583A683D2
:10095000B78386E091E09183808385EC90E0958772
:10096000848784EC90E09787868780EC90E0918B79
:10097000808B81EC90E0938B828B82EC90E0958B66
:10098000848B86EC90E0978B868B118E128E138E63
:10099000148E82EF91E00E9482048FEE91E00E941B
:1009A00082048CEE91E00E94820489EE91E00E9424
:1009B000820486EE91E00C948204789484B582607F
:1009C00084BD84B5816084BD85B5826085BD85B5F3
:1009D000816085BD80916E00816080936E00109271
:1009E00081008091810082608093810080918100EC
:1009F000816080938100809180008160809380007D
:100A00008091B10084608093B1008091B0008160DA
:100A10008093B00080917A00846080937A00809106
:100A20007A00826080937A0080917A00816080935E
:100A30007A0080917A00806880937A001092C100D9
:100A40006BE070E082EF91E00E947B026AE070E070
:100A50008FEE91E00E947B0269E070E08CEE91E005
:100A60000E947B0266E070E089EE91E00E947B02CA
:100A700065E070E086EE91E00E947B0288E00E94D3
:100A8000870087E00E948700E0915901F0915A01A8
:100A900082E08083E0915501F09156011082E0914F
:100AA0005701F09158018FEC808310926101E09121
:100AB0005D01F0915E0186E08083E0915B01F09141
:100AC0005C01808180618083E0915B01F0915C0139
:100AD000808188608083E0915B01F0915C0180817E
:100AE00080688083E0915B01F0915C0180818F7D63
:100AF000808380E4982EC0E0D0E00FE010E09CE816
:100B0000A92EB12C61E088E00E94A60060E087E099
:100B10000E94A60090927C0080917A00806480936D
:100B20007A0080917A0086FDFCCFC0907800D0904A
:100B30007900D0923F01C0923E018FE5C81681E056
:100B4000D8060CF44CC0B0920101A0920001E090D4
:100B50000001F0900101B70182EF91E00E94FF01D6
:100B6000B7018FEE91E00E94FF01B7018CEE91E09A
:100B70000E94FF01B70189EE91E00E94FF01B701D9
:100B800086EE91E00E94FF010D2C000CEE08FF089C
:100B90004AE0C701B601F7FE0DC06DE289E491E0BD
:100BA0000E94920166277727CB016C197D098E0977
:100BB0009F094AE00E94D60242E050E064E171E001
:100BC00089E491E00E94F200209709F49BCF0E94F3
:100BD0005C01882309F496CF0E94000093CF109304
:100BE000010100930001B3CF052E97FB1EF4009482
:100BF0000E940B0657FD07D00E94260607FC03D073
:100C00004EF40C940B0650954095309521953F4F2E
:100C10004F4F5F4F089590958095709561957F4FE8
:100C20008F4F9F4F08950E944806A59F900DB49F37
:100C3000900DA49F800D911D11240895B7FF0C9471
:100C400013060E941306821B930B0895A1E21A2E2D
:100C5000AA1BBB1BFD010DC0AA1FBB1FEE1FFF1F60
:100C6000A217B307E407F50720F0A21BB30BE40BB0
:100C7000F50B661F771F881F991F1A9469F76095F7
:100C80007095809590959B01AC01BD01CF010895B1
:100C9000A29FB001B39FC001A39F700D811D1124BD
:100CA000911DB29F700D811D1124911D0895991BF6
:100CB00079E004C0991F961708F0961B881F7A9553
:100CC000C9F780950895EE0FFF1F0590F491E02D70
:100CD0000994F894FFCF0F00000000009201F20089
:0E0CE0001F01DF0150012E0142010D0A00002C
:107E0000112484B714BE81FFF0D085E080938100F7
:107E100082E08093C00088E18093C10086E0809377
:107E2000C20080E18093C4008EE0C9D0259A86E02C
:107E300020E33CEF91E0309385002093840096BBD3
:107E4000B09BFECF1D9AA8958150A9F7CC24DD24C4
:107E500088248394B5E0AB2EA1E19A2EF3E0BF2EE7
:107E6000A2D0813461F49FD0082FAFD0023811F036
:107E7000013811F484E001C083E08DD089C08234E0
:107E800011F484E103C0853419F485E0A6D080C0E4
:107E9000853579F488D0E82EFF2485D0082F10E0AE
:107EA000102F00270E291F29000F111F8ED06801E7
:107EB0006FC0863521F484E090D080E0DECF843638
:107EC00009F040C070D06FD0082F6DD080E0C81688
:107ED00080E7D80618F4F601B7BEE895C0E0D1E017
:107EE00062D089930C17E1F7F0E0CF16F0E7DF06D8
:107EF00018F0F601B7BEE89568D007B600FCFDCFD4
:107F0000A601A0E0B1E02C9130E011968C91119780
:107F100090E0982F8827822B932B1296FA010C0160
:107F200087BEE89511244E5F5F4FF1E0A038BF0790
:107F300051F7F601A7BEE89507B600FCFDCF97BE46
:107F4000E89526C08437B1F42ED02DD0F82E2BD052
:107F50003CD0F601EF2C8F010F5F1F4F84911BD097
:107F6000EA94F801C1F70894C11CD11CFA94CF0C13
:107F7000D11C0EC0853739F428D08EE10CD085E9AC
:107F80000AD08FE07ACF813511F488E018D01DD067
:107F900080E101D065CF982F8091C00085FFFCCF94
:107FA0009093C60008958091C00087FFFCCF809118
:107FB000C00084FD01C0A8958091C6000895E0E648
:107FC000F0E098E1908380830895EDDF803219F02E
:107FD00088E0F5DFFFCF84E1DECF1F93182FE3DFCA
:107FE0001150E9F7F2DF1F91089580E0E8DFEE27F6
:047FF000FF270994CA
:027FFE00040479
:00000001FF
